{
  "_format": "hh-sol-artifact-1",
  "contractName": "SimpleBank",
  "sourceName": "contracts/simpleBank.sol",
  "abi": [
    {
      "anonymous": false,
      "inputs": [
        {
          "indexed": true,
          "internalType": "address",
          "name": "account",
          "type": "address"
        }
      ],
      "name": "AccountCreated",
      "type": "event"
    },
    {
      "anonymous": false,
      "inputs": [
        {
          "indexed": true,
          "internalType": "address",
          "name": "account",
          "type": "address"
        },
        {
          "indexed": false,
          "internalType": "uint256",
          "name": "amount",
          "type": "uint256"
        }
      ],
      "name": "Deposit",
      "type": "event"
    },
    {
      "anonymous": false,
      "inputs": [
        {
          "indexed": true,
          "internalType": "address",
          "name": "account",
          "type": "address"
        },
        {
          "indexed": false,
          "internalType": "uint256",
          "name": "amount",
          "type": "uint256"
        }
      ],
      "name": "Withdrawal",
      "type": "event"
    },
    {
      "inputs": [
        {
          "internalType": "address",
          "name": "account",
          "type": "address"
        }
      ],
      "name": "accountExist",
      "outputs": [
        {
          "internalType": "bool",
          "name": "",
          "type": "bool"
        }
      ],
      "stateMutability": "view",
      "type": "function"
    },
    {
      "inputs": [],
      "name": "checkBalance",
      "outputs": [
        {
          "internalType": "uint256",
          "name": "",
          "type": "uint256"
        }
      ],
      "stateMutability": "view",
      "type": "function"
    },
    {
      "inputs": [],
      "name": "createAccount",
      "outputs": [],
      "stateMutability": "nonpayable",
      "type": "function"
    },
    {
      "inputs": [],
      "name": "deposit",
      "outputs": [],
      "stateMutability": "payable",
      "type": "function"
    },
    {
      "inputs": [],
      "name": "getTotalAccounts",
      "outputs": [
        {
          "internalType": "uint256",
          "name": "",
          "type": "uint256"
        }
      ],
      "stateMutability": "view",
      "type": "function"
    },
    {
      "inputs": [
        {
          "internalType": "uint256",
          "name": "amount",
          "type": "uint256"
        }
      ],
      "name": "withdraw",
      "outputs": [],
      "stateMutability": "nonpayable",
      "type": "function"
    }
  ],
  "bytecode": "0x608060405234801561001057600080fd5b50610d5a806100206000396000f3fe6080604052600436106100555760003560e01c80632e1a7d4d1461005a5780636f145dd2146100835780639dca362f146100c0578063c71daccb146100d7578063d0e30db014610102578063da6841aa1461010c575b600080fd5b34801561006657600080fd5b50610081600480360381019061007c919061084a565b610137565b005b34801561008f57600080fd5b506100aa60048036038101906100a591906108d5565b6103da565b6040516100b7919061091d565b60405180910390f35b3480156100cc57600080fd5b506100d5610430565b005b3480156100e357600080fd5b506100ec6105bc565b6040516100f99190610947565b60405180910390f35b61010a61068e565b005b34801561011857600080fd5b50610121610802565b60405161012e9190610947565b60405180910390f35b600160003373ffffffffffffffffffffffffffffffffffffffff1673ffffffffffffffffffffffffffffffffffffffff16815260200190815260200160002060009054906101000a900460ff166101c3576040517f08c379a00000000000000000000000000000000000000000000000000000000081526004016101ba906109bf565b60405180910390fd5b60008111610206576040517f08c379a00000000000000000000000000000000000000000000000000000000081526004016101fd90610a51565b60405180910390fd5b806000803373ffffffffffffffffffffffffffffffffffffffff1673ffffffffffffffffffffffffffffffffffffffff168152602001908152602001600020541015610287576040517f08c379a000000000000000000000000000000000000000000000000000000000815260040161027e90610abd565b60405180910390fd5b806000803373ffffffffffffffffffffffffffffffffffffffff1673ffffffffffffffffffffffffffffffffffffffff16815260200190815260200160002060008282546102d59190610b0c565b9250508190555060003373ffffffffffffffffffffffffffffffffffffffff168260405161030290610b71565b60006040518083038185875af1925050503d806000811461033f576040519150601f19603f3d011682016040523d82523d6000602084013e610344565b606091505b5050905080610388576040517f08c379a000000000000000000000000000000000000000000000000000000000815260040161037f90610bd2565b60405180910390fd5b3373ffffffffffffffffffffffffffffffffffffffff167f7fcf532c15f0a6db0bd6d0e038bea71d30d808c7d98cb3bf7268a95bf5081b65836040516103ce9190610947565b60405180910390a25050565b6000600160008373ffffffffffffffffffffffffffffffffffffffff1673ffffffffffffffffffffffffffffffffffffffff16815260200190815260200160002060009054906101000a900460ff169050919050565b600160003373ffffffffffffffffffffffffffffffffffffffff1673ffffffffffffffffffffffffffffffffffffffff16815260200190815260200160002060009054906101000a900460ff16156104bd576040517f08c379a00000000000000000000000000000000000000000000000000000000081526004016104b490610c3e565b60405180910390fd5b60018060003373ffffffffffffffffffffffffffffffffffffffff1673ffffffffffffffffffffffffffffffffffffffff16815260200190815260200160002060006101000a81548160ff0219169083151502179055506002339080600181540180825580915050600190039060005260206000200160009091909190916101000a81548173ffffffffffffffffffffffffffffffffffffffff021916908373ffffffffffffffffffffffffffffffffffffffff1602179055503373ffffffffffffffffffffffffffffffffffffffff167f805996f252884581e2f74cf3d2b03564d5ec26ccc90850ae12653dc1b72d1fa260405160405180910390a2565b6000600160003373ffffffffffffffffffffffffffffffffffffffff1673ffffffffffffffffffffffffffffffffffffffff16815260200190815260200160002060009054906101000a900460ff1661064a576040517f08c379a0000000000000000000000000000000000000000000000000000000008152600401610641906109bf565b60405180910390fd5b6000803373ffffffffffffffffffffffffffffffffffffffff1673ffffffffffffffffffffffffffffffffffffffff16815260200190815260200160002054905090565b600160003373ffffffffffffffffffffffffffffffffffffffff1673ffffffffffffffffffffffffffffffffffffffff16815260200190815260200160002060009054906101000a900460ff1661071a576040517f08c379a0000000000000000000000000000000000000000000000000000000008152600401610711906109bf565b60405180910390fd5b6000341161075d576040517f08c379a000000000000000000000000000000000000000000000000000000000815260040161075490610cd0565b60405180910390fd5b346000803373ffffffffffffffffffffffffffffffffffffffff1673ffffffffffffffffffffffffffffffffffffffff16815260200190815260200160002060008282546107ab9190610cf0565b925050819055503373ffffffffffffffffffffffffffffffffffffffff167fe1fffcc4923d04b559f4d29a8bfc6cda04eb5b0d3c460751c2402c5c5cc9109c346040516107f89190610947565b60405180910390a2565b6000600280549050905090565b600080fd5b6000819050919050565b61082781610814565b811461083257600080fd5b50565b6000813590506108448161081e565b92915050565b6000602082840312156108605761085f61080f565b5b600061086e84828501610835565b91505092915050565b600073ffffffffffffffffffffffffffffffffffffffff82169050919050565b60006108a282610877565b9050919050565b6108b281610897565b81146108bd57600080fd5b50565b6000813590506108cf816108a9565b92915050565b6000602082840312156108eb576108ea61080f565b5b60006108f9848285016108c0565b91505092915050565b60008115159050919050565b61091781610902565b82525050565b6000602082019050610932600083018461090e565b92915050565b61094181610814565b82525050565b600060208201905061095c6000830184610938565b92915050565b600082825260208201905092915050565b7f4163636f756e7420646f6573206e6f7420657869737400000000000000000000600082015250565b60006109a9601683610962565b91506109b482610973565b602082019050919050565b600060208201905081810360008301526109d88161099c565b9050919050565b7f5769746864726177616c20616d6f756e74206d7573742062652067726561746560008201527f72207468616e2030000000000000000000000000000000000000000000000000602082015250565b6000610a3b602883610962565b9150610a46826109df565b604082019050919050565b60006020820190508181036000830152610a6a81610a2e565b9050919050565b7f496e73756666696369656e742062616c616e6365000000000000000000000000600082015250565b6000610aa7601483610962565b9150610ab282610a71565b602082019050919050565b60006020820190508181036000830152610ad681610a9a565b9050919050565b7f4e487b7100000000000000000000000000000000000000000000000000000000600052601160045260246000fd5b6000610b1782610814565b9150610b2283610814565b9250828203905081811115610b3a57610b39610add565b5b92915050565b600081905092915050565b50565b6000610b5b600083610b40565b9150610b6682610b4b565b600082019050919050565b6000610b7c82610b4e565b9150819050919050565b7f5472616e73666572206661696c65640000000000000000000000000000000000600082015250565b6000610bbc600f83610962565b9150610bc782610b86565b602082019050919050565b60006020820190508181036000830152610beb81610baf565b9050919050565b7f4163636f756e7420616c72656164792065786973747300000000000000000000600082015250565b6000610c28601683610962565b9150610c3382610bf2565b602082019050919050565b60006020820190508181036000830152610c5781610c1b565b9050919050565b7f4465706f73697420616d6f756e74206d7573742062652067726561746572207460008201527f68616e2030000000000000000000000000000000000000000000000000000000602082015250565b6000610cba602583610962565b9150610cc582610c5e565b604082019050919050565b60006020820190508181036000830152610ce981610cad565b9050919050565b6000610cfb82610814565b9150610d0683610814565b9250828201905080821115610d1e57610d1d610add565b5b9291505056fea264697066735822122060bc55d2a295de6962e8c9ea6e33fec7b0c456cf6bde1f3603787eaa2a5b49e864736f6c63430008140033",
  "linkReferences": {},
  "deployedLinkReferences": {}
}